:100000000C9434000C9451000C9451000C94510049
:100010000C9451000C9451000C9451000C9451001C
:100020000C9451000C9451000C9451000C9451000C
:100030000C9451000C9451000C9451000C945100FC
:100040000C9451000C9451000C9451000C945100EC
:100050000C9451000C9451000C9451000C945100DC
:100060000C9451000C94510011241FBECFEFD8E026
:10007000DEBFCDBF11E0A0E0B1E0E6E8F4E002C0F1
:1000800005900D92A634B107D9F721E0A6E4B1E0BE
:1000900001C01D92A734B207E1F70E94F8010C9449
:1000A00041020C94000080FF04C09BB190629BB998
:1000B00003C09BB19F7D9BB981FF04C09BB190643D
:1000C0009BB903C09BB19F7B9BB982FF04C09BB1CE
:1000D00090689BB903C09BB19F779BB983FF04C015
:1000E0008BB184608BB903C08BB18B7F8BB98BB123
:1000F00080618BB987EC90E00197F1F700C00000B8
:100100008BB18F7E8BB90895CF93C82F8BB1877F2A
:100110008BB900008C2F82958F700E9453008C2F1A
:100120008F700E9453008FE99FE00197F1F700C0A4
:100130000000CF910895CF938AB188608AB98AB1BF
:1001400080618AB98BB18F7E8BB98BB1877F8BB978
:100150008AB180628AB98AB180648AB98AB18068BA
:100160008AB98AB184608AB92FEF89EF90E0215073
:1001700080409040E1F700C00000C0E00AC083E08A
:100180000E9453008FE19EE40197F1F700C0000048
:10019000CF5FC330A0F383E30E94840082E30E9418
:1001A000840088E20E9484008CE00E94840086E043
:1001B0000E94840081E00E9484008FED9EE20197FE
:1001C000F1F700C00000CF910895CF93C82F8BB1F5
:1001D00088608BB900008C2F82958F700E9453002D
:1001E0008C2F8F700E9453008FE99FE00197F1F7E9
:1001F00000C00000CF910895CF93DF93EC0103C0BE
:100200000E94E500219688818111FACFDF91CF917C
:100210000895882321F08FE00E94840008958CE0E7
:100220000E948400089581E00E9484008FE39FE192
:100230000197F1F700C00000089582E00E94840059
:100240008FE39FE10197F1F700C00000089584B1AA
:10025000816084B984B1826084B984B1846084B9D6
:1002600084B1886084B987B18E7F87B987B18D7F6B
:1002700087B987B18B7F87B987B1877F87B988B105
:10028000816088B988B1826088B988B1846088B992
:1002900088B1886088B90895309909C0309BFECF35
:1002A000319BFCCF329BFACF339BF8CF31C080918A
:1002B00046018F5F80934601319909C0309BFECF84
:1002C000319BFCCF329BFACF339BF8CF23C08F5F9B
:1002D00080934601329909C0309BFECF319BFCCF01
:1002E000329BFACF339BF8CF17C08F5F80934601C4
:1002F000339909C0309BFECF319BFCCF329BFACFA4
:10030000339BF8CF0BC08F5F8093460180E0089548
:1003100081E0089581E0089581E0089581E00895E5
:1003200095B1916095B995B1926095B995B1946088
:1003300095B995B1986095B9823069F018F481301B
:1003400031F014C0833059F0843069F00FC085B1AA
:100350008E7F85B90BC085B18D7F85B907C085B10A
:100360008B7F85B903C085B1877F85B9000008956B
:100370008FE39CE90197F1F700C00000109246015D
:1003800081E00E9490010E944C01882339F0E091A5
:100390004601F0E0ED5EFE4F8081089582E00E940C
:1003A00090010E944C01882339F0E0914601F0E071
:1003B000ED5EFE4F8081089583E00E9490010E94CF
:1003C0004C01882339F0E0914601F0E0ED5EFE4FEC
:1003D0008081089584E00E9490010E944C0188234E
:1003E00031F0E0914601F0E0ED5EFE4F808108952E
:1003F0000E949B000E9427010E9413010E941D0180
:1004000083E291E00E94FC002FEF83ED90E3215006
:1004100080409040E1F700C000000E9413010E945C
:100420001D018AE091E00E94FC0080E091E00E94C2
:10043000FC002FEF83ED90E3215080409040E1F7E6
:1004400000C000000E9413010E941D0183E391E09F
:100450000E94FC002FEF83ED90E3215080409040FC
:10046000E1F700C000000E9413010E941D0181E01D
:100470000E9409010E94B8018823E1F30E94E5006F
:06048000F9CFF894FFCF54
:100486005445414D20424D532000475255504F2070
:100496003520003132334134353642373839432A34
:1004A60030234450524F592E20454D42454249442F
:1004B6004F5300494E4752455345205355204E55FC
:0604C6004D45524F3A00C3
:00000001FF
